:02000002B0004C
:1040000000400B00D2830B00000006000C000502EC
:084010000401B41400000000DB
:04401800E0730B0046
:10401C0010F8012B11F8013B012A28BF9A42F7D066
:10402C00D01A7047034613F8012B002AFBD1181A3B
:10403C000138704709480A49884208B505D0094A31
:10404C00824202D0121A03F01BF90748074A0021DA
:10405C00121A03F023F9014808BD00BF74E50320D0
:10406C0038830B00E0E50320E0E50320F0E70320B4
:10407C0070B5074E074C02F0BDFEA41BA40800252A
:10408C00AC4200D170BD56F8043B98470135F7E7B8
:10409C00F0820B0014830B0000F034B808B500F06C
:1040AC00A5F8BDE8084002F05DBE01F07DBE01F050
:1040BC007BBE01F081BE000008B5034A03490C2009
:1040CC0001F0CEFDFEE700BF1D590B00F4730B0091
:1040DC000078B0FA80F040097047012303707047F4
:1040EC0010B5074C204600F08DFE0121204600F053
:1040FC00D0FC00224FF00113C4E9042310BD00BF13
:10410C003CE6032038B51A4D1A4C284601F080FBCA
:10411C0002F0A2FD4FF4165102F092FD02F032FFB4
:10412C0001F00AFF02F02EFF0146204601F0FDFAD5
:10413C00204601F0A6FA204601F080FA204601F054
:10414C00C4FA0121052002F0C5FE0121062002F06F
:10415C00C1FE0121072002F0BDFEFFF7C1FF28467A
:10416C00054902F0ACF82846BDE8384001F0B8B873
:10417C003CE60320B0E6032009740B0010B5084C94
:10418C000849204602F088F8074B204619880A2275
:10419C0002F09FF82046BDE8104001F0A1B800BF26
:1041AC003CE6032021740B00B4E6032010B50C4947
:1041BC000C4802F071F80C4B1C68002C0DDA2D2108
:1041CC00084802F06DF8614206480A2202F081F8B4
:1041DC00BDE81040034801F083B82146F4E700BF66
:1041EC003D740B003CE60320ACE6032010B52148DF
:1041FC00214C01F036FB214801F09FF920801F482B
:10420C0001F09EF91E4B18602388322B20D8012117
:10421C00052002F070FE0021062002F06CFE002149
:10422C00072002F068FE134801F034FB18B1FFF7C9
:10423C0057FFFFF7A3FF0F4801F036FB18B1FFF74C
:10424C004FFFFFF7B3FFBDE810400A4801F036BB43
:10425C00962B4FF000014FF0050003D802F04BFEF7
:10426C000121D9E702F047FE0021062002F043FEAF
:10427C000121D5E73CE60320B4E60320B0E6032099
:10428C00ACE6032010B5104C0021012001F008FD14
:10429C00204602F013FC04F11C0001F0C7FE0B4A8F
:1042AC000B480023C2E90043C2E90233C2E90433DC
:1042BC009361938307216363238701F07BFABDE845
:1042CC001040044801F0FFB800E60320E0E50320AD
:1042DC003CE60320B0E603202DE9F04F85B01F46E5
:1042EC00BDF93880BDF83C30A8EB0209A7EB010AF8
:1042FC00B9F1000FB8BFC9F10009BAF1000FB8BF8E
:10430C00CAF1000AD14583460C46154604DD3A46EF
:10431C002C4647460D469046BC4205DD2A4645468E
:10432C00904622463C4617463E1BB2B20092A8EB82
:10433C00050282EAE271A1EBE271C6F3C03202FA25
:10434C0086F64545B4BF01224FF0FF32019176103D
:10435C000292BC421CDCDBF800200393D145D2F85E
:10436C001880C7BF294622462A4621465846C047D0
:10437C00019A039BB61AB1B236B2002E05DA029A34
:10438C001544009A56182DB236B2013424B2E0E727
:10439C0005B0BDE8F08F704710B404682469A446DA
:1043AC005DF8044B604730B40468BDF808500295C2
:1043BC00A46BA44630BC604730B40468BDF8085008
:1043CC000295E46BA44630BC604770B4BDF90C5048
:1043DC00BDF810600468CDE90356246CA44670BC8B
:1043EC0060472DE9F3411C460368BDF820805B69EA
:1043FC0005461646013C34440F4624B298472B68B8
:10440C00CDF8048000949C6A28463B4632463946D7
:10441C00A0472B68DB6A284602B0BDE8F04118477C
:10442C002DE9F3411D460368BDF820805B69044605
:10443C0017460E469847CDE9007822686B1E334428
:10444C00956A20461BB23A463146A8472368DB6A78
:10445C00204602B0BDE8F04118472DE9F3471E464F
:10446C000368BDF928905B69BDF82C800C460546A5
:10447C00174698472644B4422B680BDACDF80080D7
:10448C00D3F820A021464B463A4628460134D04763
:10449C0024B2F0E7DB6A284602B0BDE8F0471847C3
:1044AC0013B502680191B0F90E100091146CB0F9BB
:1044BC000C3000221146A04702B010BD2DE9F74385
:1044CC0099421646BDF92870BDF82C9002688046BA
:1044DC000D461C4613D1BE42C8BF3346CDF82890BA
:1044EC00C4BF3E461F467B1C946B9B1B1BB23246C3
:1044FC0029464046A44603B0BDE8F0436047BE429F
:10450C000AD19942C2BF0B4625461C46631CCDF806
:10451C002890D46B5B1BE9E753699847CDE9007988
:10452C00D8F8003040469F6A324623462946B847A1
:10453C00D8F80030DB6A404603B0BDE8F0431847BA
:10454C002DE9F3471D460368BDF82C805B69BDF966
:10455C00289004460F46164698472368CDF80080ED
:10456C00D3F824A032462B4639462046D047236840
:10457C00CDF8008009F1FF323244D3F824A039463B
:10458C002B46204612B2D0472368CDF80080D3F8D2
:10459C0020A032464B4639462046D0476B1ED919CF
:1045AC002368CDF800801D6A20464B46324609B27E
:1045BC00A8472368DB6A204602B0BDE8F0471847DD
:1045CC00704701F00303B0F90A208376C907B0F9EC
:1045DC00083059BF8381C2818281C381704700003A
:1045EC0030B54281C281074A074D01810024818187
:1045FC004FF0FF31C0E90512446005600461047797
:10460C00046230BD010100015C790B002DE9F04F13
:10461C0089B0CDE902120268BDF948800493BDF956
:10462C004C3052690593BDF850A00446904718F1E0
:10463C0007024FF0000648BF08F10E024FEAE20BEA
:10464C0001963546039B019ABDF904109A18059BF7
:10465C008B4212B227DD049B33444FF000090693C2
:10466C000FFA89F080451FFA89F117DD4F0705BF56
:10467C00069BC0106D001D5C18BFEDB22B060AD551
:10468C00029B206807921944836909B21F46204691
:10469C005346B847079A09F10109E1E7019B013339
:1046AC0001935E44CEE72368DB6A204609B0BDE87F
:1046BC00F04F18472DE9F04F2DED028B91B01646B7
:1046CC00026ABDF874809DF878509DF87C40039187
:1046DC001F46BDF8703004938346002A40F0C58015
:1046EC00B0F90C308B4240F34C81B0F90E30B34230
:1046FC0040F34781062313FB0513002B40F3418144
:10470C0006EBC403002B40F33C81037F1BB9AF2F96
:10471C0084BF0137FFB2DBF8003058465B6998471D
:10472C000522099200220592984A07EB8703D318B9
:10473C000C93B3B20693059A0C9B9B5C0793ABB29C
:10474C000B93BDF80C300893039B02FB05F919FA87
:10475C0083F90FFA89F308EE103A08230A93039BA6
:10476C0002EB030A4FF000090FFA8AFA079ADBF8FA
:10477C000030D20752D5012D1FFA89F23ED1012CFF
:10478C003CD19B6906991F46049B0A4412B25146C0
:10479C005846B84709F101034FFA83F9079B5B08A8
:1047AC0007930A9B013B13F0FF030A93DED1059F8D
:1047BC0001377BB20593099B013B13F0FF0309936F
:1047CC00B9D1049B43450FD0012DDBF800303BD110
:1047DC00012C39D10899CDF8008005311C6A32467C
:1047EC00082309B25846A047DBF80030DB6A58466C
:1047FC0011B0BDEC028BBDE8F04F1847069914FBC5
:10480C0002F20A44049901910094DB6918EE101A23
:10481C001F4612B22B465846B847BBE7049A42458E
:10482C00B8D0012D1FFA89F207D1012C05D19B6953
:10483C0006991F460A444346A8E70699CDF804801A
:10484C0014FB02F20A44DFE70B9ACDF8048002EB6A
:10485C008201089AE4000A4411460094DC6932464D
:10486C002B4609B25846A047BEE7137A5168126826
:10487C000B92FF1AFFB201EBC70331F837200692F7
:10488C009A780992DA780C92012D93F9052093F914
:10489C0006A00A9201D8012C57D9BDF928300893EB
:1048AC000FFA8AF30793DBF8003058465B69984798
:1048BC00B3B24FF000080E931AFA86F3C14647467E
:1048CC000F930C9B9F428FD2079B0E9A3B4403FB8A
:1048DC000423002205920F9A1BB202EB070A08EE82
:1048EC00103A0FFA8AFA4346099A0599914241D235
:1048FC005A1CD2B25B070D9207D1069B06990B9AF4
:10490C0001339BB212F80190069319F0800F12D06C
:10491C00012DDBF80030BDF80C101AD1012C18D188
:10492C000A9A9B691144059A11441E465246049BEF
:10493C0009B25846B047059E0136F3B24FEA490911
:10494C0005935FFA89F90D9BCEE70023CDE9073378
:10495C00A9E70598089A024402FB0511049ACDE9CF
:10496C000042DB6918EE102A1E4609B22B46584647
:10497C00B047E0E7099B013798445FFA88F8FFB22B
:10498C009FE711B0BDEC028BBDE8F08F53740B00A8
:10499C00F0B5026A85B004460B46002A34D10A29C8
:1049AC0008D1438A0282427E03EBC2036382012058
:1049BC0005B0F0BD0D29FAD0E17E007E657E71B1A7
:1049CC00B4F91060062111FB0061B4F90C60B1421E
:1049DC00C1BFB4F91210228201EBC5026282E28AD5
:1049EC000192A28A0092CDE90205B4F91220B4F921
:1049FC0010102046FFF75EFE237E228A03EB430352
:104A0C0002EB43032382D2E70A2907D10023038256
:104A1C00417E927A438A01FB0233C7E70D29C6D047
:104A2C00157AA942C3D3517A9942C0D351685D1B00
:104A3C00EDB201EBC505A87828B3E97819B3E17E8E
:104A4C00267E677E91B195F905100844B4F91010D3
:104A5C0006FB0011B4F90C00814207DD0020208216
:104A6C00B4F91210927A02FB07126282E28A019266
:104A7C00A28A0092CDE90267B4F91220B4F91010A1
:104A8C002046FFF717FE2979227E238A01FB023389
:104A9C00B8E7012938BF012101764176704770478C
:104AAC0010B510210446FFF704FB204610BD0EB4D0
:104ABC0003B503AB002153F8042B019301F027FC41
:104ACC0002B05DF804EB03B07047000073B5044608
:104ADC0008462279A36832B1A3B90B4902B0BDE8EC
:104AEC00704001F0D9BB094A267B094D0949647B0A
:104AFC00012E18BF2946CDE900140749FFF7D7FF4F
:104B0C0002B070BD054AEFE7BD790B0052740B0083
:104B1C00B9790B00B5790B00D3790B00AC790B008C
:104B2C0010B5044B03600446C06A08B101F044F9A7
:104B3C00204610BDAC7E0B0010B50446FFF7F0FF0D
:104B4C0020465021FFF7B5FA204610BD002910B5BC
:104B5C004BDBB0F90C408C4247DD002A45DBB0F949
:104B6C000E40944241DD847E022C1FD0032C26D0B3
:104B7C00012C04D10489D24314440A4621B2012BDE
:104B8C0023D0022B32D083BB002A13460489C06A7F
:104B9C00B8BFD31DDB1013FB041102F00702012375
:104BAC009340425C22EA030242541EE00489013C19
:104BBC00611A4489D243224409B212B2DFE7448914
:104BCC00013C641A114622B2D9E7002A0489134623
:104BDC00B8BFD31DDB1013FB0411C36A02F007002E
:104BEC0001228240585C02435A5410BD002A1346DD
:104BFC000489C06AB8BFD31DDB1013FB041102F08B
:104C0C000702012303FA02F2435C5A40CCE700008E
:104C1C0070B504461D460026FFF7E2FC114B2360DD
:104C2C00666215B902F0AEF90546FF2384F83330FD
:104C3C0084F836309DF9103084F837300A4BA36372
:104C4C00012384F83C30059BA3644FF6FF72069B4E
:104C5C00A286C4E90A562664A4F84460E36420469C
:104C6C0070BD00BFAC7E0B00F8790B00F8B50446A4
:104C7C00806A0D4690B194F9301001F093F9A06A56
:104C8C00036800219B689847A06A036829469B68C3
:104C9C009847A06ABDE8F84001F08BB994F935301B
:104CAC00014698B202F027F9606A20B12946BDE8A6
:104CBC00F84001F00FBC0826802794F9330005EA70
:104CCC00070180B202F017F994F93400012180B287
:104CDC0002F011F994F93400002180B202F00BF9C2
:104CEC00013E4FEA5707E8D1F8BD38B50446806A53
:104CFC000D4680B1A16C01F01BF9002D204614BFAC
:104D0C00A721A621FFF7B2FFA06A88B1E16CBDE82C
:104D1C00384001F00DB9606A18B104F1380101F0A6
:104D2C006BFB94F93600002180B202F0E4F8E4E762
:104D3C0094F93600012180B202F0DDF8606A18B1F6
:104D4C00BDE8384001F03EBB38BD2DE9F8430446C0
:104D5C00806A0D468F1840B394F9301001F022F997
:104D6C00A06A036800219B6898470126AF42A06A9D
:104D7C0017D01F2E0CD901F01CF994F93010A06A31
:104D8C0001F010F9A06A036800219B68984701267E
:104D9C00A06A15F8011B036801369B689847F6B2A8
:104DAC00E4E7BDE8F84301F004B994F93530014665
:104DBC0098B202F0A0F8BD4222D0606A15F8019BAF
:104DCC0018B1494601F086FBF5E708264FF080083C
:104DDC0094F9330009EA080180B202F08CF894F9D6
:104DEC003400012180B202F086F894F934000021DD
:104DFC0080B202F080F8013E4FEA5808E8D1DAE7B9
:104E0C00BDE8F883B0F90A30DA1D48BF03F10E0291
:104E1C00B0F90830C06AD2105A43002102F03EBAF1
:104E2C002DE9FF411E46C36A9DF8288004460F46B3
:104E3C001546C3B12046FFF7E5FFB4F90A00B4F9F3
:104E4C000810202821DC202301222038CDE9013252
:104E5C0000EBD07073237339009301EBD171894B44
:104E6C0040F34F0221E0B0F90A30D81D48BF03F1DE
:104E7C000E00B4F90830C010584300F095FFE06202
:104E8C000028D7D104B0BDE8F0814038C0F3C0325F
:104E9C0002FA80F240230120CDE90130522352392D
:104EAC000093794B01EBD1715210204641F34F0125
:104EBC00FFF7ACFBA06A84F83170002878D0002D85
:104ECC0074D1B4F90A30202B0CBF3C253D2584F855
:104EDC003050B8F1000F01D001F02EF8FEB194F96A
:104EEC00370000281BDB012180B201F0F3FF94F99D
:104EFC003700012180B201F0FEFF012000F084FF99
:104F0C0094F93700002180B201F0F5FF0A2000F07F
:104F1C007BFF94F93700012180B201F0ECFFA06A0D
:104F2C00002874D0A16C01F003F8042257492046E4
:104F3C00FFF70BFF61890139C9B22046FFF796FED6
:104F4C00534904222046FFF700FF94F93130012B1E
:104F5C000CBF102114212046FFF788FE04224D4976
:104F6C002046FFF7F2FEA3684B4A93425CD14B49B3
:104F7C0004222046FFF7E9FED9212046FFF776FEF2
:104F8C0094F93130012B0CBF2221F1212046FFF77F
:104F9C006DFE204642490622FFF7D7FEA06A002884
:104FAC0063D0E16C00F0C4FF01206BE76DB28EE7BB
:104FBC0094F93500012180B201F08CFF94F9360090
:104FCC00012180B201F086FF94F93600012180B2F4
:104FDC0001F091FF656A3DB1B8F1000F3FF47EAF6F
:104FEC00284601F0DBF979E794F93300012180B20E
:104FFC0001F070FF94F93400012180B201F06AFFD6
:10500C0094F93400294680B201F075FF66E7606AB6
:10501C0018B104F1380101F0EFF994F936000021D0
:10502C0080B201F068FF80E71E4A93420ED11E4900
:10503C0003222046FFF789FE94F93130012B0CBF77
:10504C009F21CF212046FFF711FE95E7174A934287
:10505C0092D1174903222046FFF777FE94F931309D
:10506C00012B0CBF1021AF21ECE794F93600012184
:10507C0080B201F040FF606A002895D001F0A2F9DF
:10508C0092E700BFC47C0B00047A0B000C7F0B0072
:10509C00107F0B00147F0B00800020001E7F0B0084
:1050AC00187F0B0080004000227F0B006000100076
:1050BC00257F0B0070B5002ABDF810503DDBB0F910
:1050CC000A40944239DD0029BEBF5B181BB2002197
:1050DC00B0F90840CE18A642C4BF631A1BB2002B0D
:1050EC002BDDC06AD61014FB0611014402F0070038
:1050FC0001228240012DD2B216D0022D0BD0E5B97F
:10510C00D243D2B20B44994217D011F8010B104084
:10511C0001F8010CF7E70B4499420ED011F8010B82
:10512C00504001F8010CF7E70B44994205D011F8F7
:10513C00010B104301F8010CF7E770BDF0B5002925
:10514C00BDF8145076DBB0F90860B14272DA002A6F
:10515C00BEBF9B181BB20022B0F90A40D718A74259
:10516C00C4BFA31A1BB2002B64DDC2F3C404C76A0C
:10517C0016FB041612F00702DBB207EB060423D071
:10518C00C2F10802D2B22D4993423CBF4FF0FF0C42
:10519C00A2EB030E895C3CBF4CFA0EFC0CEA01013D
:1051AC00012D07D0022D2ED04DB917F806C02CEAD0
:1051BC00010103E017F806C041EA0C01B95593420E
:1051CC0038D3B0F908100C449A1AD2B2072A0ED967
:1051DC00022D1DD113462178C9432170083BB0F92B
:1051EC000810DBB2072B0C44F5D802F007020AB307
:1051FC00134B012D9B5C1AD0022D1CD0D5B92278F3
:10520C0022EA030315E017F806C081EA0C01D5E782
:10521C00291E18BF01214942C9B213462170083B0F
:10522C00B0F90860DBB2072B3444F7D8DDE72278FD
:10523C0013432370F0BD22785340FAE7FC7E0B0039
:10524C00047F0B0070B41446827EBDF80C60022AF9
:10525C000DD0032A18D0012A11D10289E443144439
:10526C0024B203960A46214670BCFFF767BF4289F9
:10527C000589E44319441444691A24B209B203960B
:10528C00224670BCFFF716BF45891944691A09B24A
:10529C00E7E730B41446827EBDF80850022A0DD0E0
:1052AC00032A18D0012A11D1E2180489A41A24B2B5
:1052BC0002950A46214630BCFFF7FCBE0289C94361
:1052CC001144E2184489A41A09B224B20295224668
:1052DC0030BCFFF733BF4289C943114409B2E7E739
:1052EC002DE9F8430446806A002842D0A16C00F0F6
:1052FC001FFE474905222046FFF727FD218901396A
:10530C002046C9B2FFF7B2FCB4F90A30DE1D48BF23
:10531C0003F10E06D4E90A052389F61013FB06F6F1
:10532C0015FA86F600283AD094F9301000F03AFEBF
:10533C00A06A036840219B6898470127B542A06A80
:10534C0024D01F2F0CD900F034FE94F93010A06A31
:10535C0000F028FEA06A036840219B68984701274B
:10536C00A06A15F8011B036801379B689847FFB2C8
:10537C00E4E7606A18B104F1380101F03DF894F9E2
:10538C003600002180B201F0B6FDB2E700F011FE4C
:10539C00A06A78B3E16CBDE8F84300F0C9BD94F99C
:1053AC003500012180B201F0A6FDAE42F0D0606A5A
:1053BC0015F8019B18B1494601F08CF8F5E7082760
:1053CC004FF0800894F9330009EA080180B201F02B
:1053DC0092FD94F93400012180B201F08CFD94F916
:1053EC003400002180B201F086FD013F4FEA5808DD
:1053FC00E8D1DAE794F93600012180B201F07BFDA7
:10540C00606A18B1BDE8F84300F0DCBFBDE8F88372
:10541C00287F0B0000210A22C0E9001270470023EC
:10542C0010B50446C171837188B201F07DFD08B1DD
:10543C000323A37100F074FA206010BD38B50C463C
:10544C0005461146A0B201F045FD21462846BDE8AF
:10545C003840FFF7E4BF38B50446C07901F064FD6D
:10546C00A579003825F0080318BF0120C5F34005C5
:10547C008542A3710AD000F053FAA379206083F01F
:10548C000203A371A079C0F3C00038BD00F048FA44
:10549C002368C01AA3889842F4D3A37903F00103BC
:1054AC00AB42EFD000F03CFAA379206083F001030B
:1054BC0043F00803E5E7807900F00900A0F1080348
:1054CC00584258417047704710B504466021006837
:1054DC0000F064FD206800F06CFDB0FA80F040092B
:1054EC0010BD38B505460C460068602100F056FD2D
:1054FC002868036821469B6898472868002100F0BB
:10550C0054FD08B1002038BD28680222602100F04B
:10551C0042FD286803681B6998470028F2D0286868
:10552C0003685B6998470446286803685B69984779
:10553C00E4B244EA002080B2E5E70821FFF7D1BFCE
:10554C000921FFF7CEBF0C21FFF7CBBF70B5044686
:10555C000E4600686021154600F020FD20680368A7
:10556C0031469B68984720680368E9B29B68984766
:10557C0020680368290A9B689847206800F019FD89
:10558C00B0FA80F0400970BD70B504460D46164661
:10559C00FFF7A7FF00F47F4040EA060229462046A9
:1055AC00BDE87040FFF7D2BF70B504460D461646F5
:1055BC00FFF797FFC0B240EA062229462046BDE815
:1055CC007040FFF7C3BF08B5FFF78BFFC0F3072090
:1055DC0008BD2DE9F04104469DF818700D4698461B
:1055EC0016466AB1FFF77DFFC0B200EA080343EA32
:1055FC0007022946204636B1BDE8F041FFF7C4BF8B
:10560C00FFF7E1FFF1E7BDE8F041FFF7CDBFB1F5E2
:10561C00A07F07B50ED29F290ED84F298CBF4023EF
:10562C000023009301223F230321FFF7D2FF03B095
:10563C005DF804FBC023F4E78023F2E707B50021F3
:10564C000091FE230122FFF7C4FF03B05DF804FBB9
:10565C00072907B50FD803290FD810D002290CBF82
:10566C000423002300930122F1230321FFF7B1FF50
:10567C0003B05DF804FB0E23F4E70C23F2E70823D8
:10568C00F0E707B5002300930122FE230321FFF767
:10569C00A0FF03B05DF804FB07B50F298CBF0823EE
:1056AC00002300930022F7230321FFF792FF03B09E
:1056BC005DF804FB07B5022300930122EF230421BC
:1056CC00FFF787FF03B05DF804FB07B500220092DB
:1056DC007F230421FFF77DFF03B05DF804FBC7298E
:1056EC0007B516D8B32916D89F2916D88B2916D8E2
:1056FC00772916D8632916D84A2994BF002101218D
:10570C000091F82300220421FFF763FF03B05DF83A
:10571C0004FB0721F4E70621F2E70521F0E7042159
:10572C00EEE70321ECE70221EAE738B50446084628
:10573C00216000F001FC2046FFF7C6FE054610B9BB
:10574C000025284638BD2046FFF7FDFEB0F5C37F87
:10575C00F6D12046C821FFF7C2FF20462821FFF7CB
:10576C0056FF20460821FFF773FF10212046FFF754
:10577C0093FF2046FFF79EFF2046FFF782FFE0E7EE
:10578C0010B5064B03600446006D08B100F0A8F894
:10579C002046FFF7C5F9204610BD00BF387F0B002F
:1057AC0010B50446FFF7ECFF20467021FEF781FC94
:1057BC00204610BD30B585B004460D4601F0E2FB25
:1057CC00104A1149CDE901214FF0FF3280210346E7
:1057DC00009220462022FFF71BFA0C4B236000237B
:1057EC00C4E9143504F15800FFF714FE04F160000D
:1057FC00FFF710FE04F16800FFF70CFE204605B021
:10580C0030BD00BF801A0600A0860100387F0B0057
:10581C0013B50446503000F05BF8636DD90705D51D
:10582C000222042104F15800FFF708FE636D9A0769
:10583C0005D50022032104F16000FFF7FFFD636D25
:10584C005B0705D50222114604F16800FFF7F6FD4F
:10585C00012300933C2202212046FFF7E1FA02B01B
:10586C0010BD10B5436DD907044602D55830FFF76B
:10587C00F2FD636D9A0703D504F16000FFF7EBFDB1
:10588C00636D5B0705D504F16800BDE81040FFF7B8
:10589C00E2BD10BD436D024613F0010003D002F1CE
:1058AC005800FFF708BE7047436D024613F0020024
:1058BC0003D002F16000FFF7FEBD7047436D024656
:1058CC0013F0040003D002F16800FFF7F4BD704739
:1058DC0008B5024B1B681B6B019308BD4802030003
:1058EC0008B5024B1B685B6B019308BD48020300B3
:1058FC0008B5024B1B685B6C019308BD48020300A2
:10590C0008B5024B1B685B68019308BD18020300C5
:10591C0008B5024B1B68DB68019308BD1802030035
:10592C0008B5024B1B685B69019308BD18020300A4
:10593C0008B5024B1B689B68019308BD2C02030041
:10594C0008B5024B1B68DB68019308BD2C020300F1
:10595C0008B5024B1B681B69019308BD2C020300A0
:10596C0008B5024B1B685B69019308BD2C02030050
:10597C0008B5024B1B681B68019308BD2802030085
:10598C0008B5024B1B68DB68019308BD28020300B5
:10599C0008B5024B1B689B69019308BD28020300E4
:1059AC0008B5024B1B68DB69019308BD2802030094
:1059BC0008B5024B1B681B6A019308BD2802030043
:1059CC0008B5024B1B685B6A019308BD28020300F3
:1059DC0008B5024B1B689B6A019308BD28020300A3
:1059EC0008B5024B1B68DB6A019308BD2802030053
:1059FC0008B5024B1B681B6B019308BD2802030002
:105A0C0008B5024B1B685B6B019308BD28020300B1
:105A1C0008B5024B1B681B6C019308BD28020300E0
:105A2C0008B5024B1B681B6D019308BD28020300CF
:105A3C0008B5024B1B685B69019308BD6C0203003F
:105A4C0008B5024B1B685B69019308BD6402030037
:105A5C0008B5024B1B681B6A019308BD6402030066
:105A6C0008B5024B1B689B6A019308BD64020300D6
:105A7C0008B5024B1B689B68019308BD68020300C4
:105A8C0008B5024B1B68DB68019308BD6802030074
:105A9C0008B5024B1B689B69019308BD38020300D3
:105AAC0008B5024B1B68DB69019308BD3802030083
:105ABC0008B5024B1B681B6A019308BD3802030032
:105ACC0008B5024B1B689B6A019308BD38020300A2
:105ADC0008B5024B1B681B6B019308BD3802030011
:105AEC0008B5024B1B689B6B019308BD3802030081
:105AFC0008B5024B1B681B68019308BD30020300FC
:105B0C0008B5024B1B685B69019308BD30020300AA
:105B1C0008B5024B1B68DB69019308BD300203001A
:105B2C0008B5024B1B681B6A019308BD30020300C9
:105B3C0008B5024B1B685B6A019308BD3002030079
:105B4C0008B5024B1B68DB6B019308BD30020300E8
:105B5C0008B5024B1B681B6C019308BD3002030097
:105B6C0008B5024B1B685B6C019308BD3002030047
:105B7C0008B5024B1B68DB68019308BD3C020300AF
:105B8C0008B5024B1B681B69019308BD3C0203005E
:105B9C0008B5024B1B685B69019308BD3C0203000E
:105BAC0008B5024B1B689B69019308BD3C020300BE
:105BBC0008B5024B1B68DB69019308BD3C0203006E
:105BCC0008B5024B1B681B6A019308BD3C0203001D
:105BDC0008B5024B1B689B6A019308BD3C0203008D
:105BEC0008B5024B1B681B6C019308BD3C020300FB
:105BFC0008B5024B1B681B68019308BD4C020300DF
:105C0C0008B5024B1B685B68019308BD4C0203008E
:105C1C0008B5024B1B681B69019308BD4C020300BD
:105C2C0008B5024B1B685B69019308BD4C0203006D
:105C3C0008B5024B1B689B69019308BD4C0203001D
:105C4C0008B5024B1B68DB69019308BD4C020300CD
:105C5C0008B5024B1B681B6A019308BD4C0203007C
:105C6C0008B5024B1B685B6B019308BD6002030017
:105C7C0008B5024B1B681B6D019308BD6002030045
:105C8C0008B5024B1B685B68019308BD200203003A
:105C9C0008B5024B1B685B69019308BD2002030029
:105CAC0008B5024B1B68DB6A019308BD2002030098
:105CBC0008B5034B1B68D3F88830019308BD00006E
:105CCC002002030008B5034B1B68D3F894300193F2
:105CDC0008BD00002002030008B5024B1B68DB6BFB
:105CEC00019308BD4402030008B5024B1B685B68B6
:105CFC00019308BD4002030008B5024B1B689B686A
:105D0C00019308BD4002030008B5024B1B68DB6819
:105D1C00019308BD4002030008B5024B1B681B69C8
:105D2C00019308BD4002030008B5024B1B685B6978
:105D3C00019308BD4002030008B5024B1B689B6928
:105D4C00019308BD4002030008B5024B1B68DB69D8
:105D5C00019308BD4002030008B5024B1B681B6A87
:105D6C00019308BD4002030008B5024B1B681B6B76
:105D7C00019308BD4002030008B5024B1B685B6B26
:105D8C00019308BD4002030008B5024B1B681B6C55
:105D9C00019308BD4002030008B5024B1B685B6C05
:105DAC00019308BD4002030008B5024B1B681B6839
:105DBC00019308BD1C02030008B5024B1B685B680D
:105DCC00019308BD1C02030008B5024B1B685B6AFB
:105DDC00019308BD1C02030008B5024B1B68DB6B6A
:105DEC00019308BD1C02030008B5024B1B681B6C19
:105DFC00019308BD1C02030008B5024B1B685B6CC9
:105E0C00019308BD1C0203000021FFF741BF0000F5
:105E1C00024800230360FFF76BBD00BFC4E60320FC
:105E2C00002240681146FFF797BF002240681146D8
:105E3C00FFF7A2BF40680022FFF796BF4068002220
:105E4C0081F00101FFF780BF002340681A46194614
:105E5C00FFF772BF002340681A461946FFF764BF6C
:105E6C00002240681146FFF757BF002240681146D8
:105E7C00FFF742BF406800220221FFF745BF002315
:105E8C0040681A46FFF730BF024B03225A60024AA1
:105E9C001A607047C8E60320987F0B007047F8B56E
:105EAC00064615460C468F18BC4206D0336814F8CB
:105EBC00011B9B6830469847F6E72846F8BD007CE6
:105ECC000022FFF775BD007C0021FFF779BD007C37
:105EDC000021FFF77DBD007C0021FFF781BD007C18
:105EEC000021FFF785BD10B514210446FEF7E1F83B
:105EFC00204610BD38B5044615464FF47A7300227F
:105F0C00C4E90123094B2174084623602946FFF795
:105F1C007FFDBF3008D16B69DB0705D56868FFF7DB
:105F2C004BFFE868FFF748FF204638BDD47F0B00D5
:105F3C00007C0022FFF71CBD0023007C1A4619468A
:105F4C00FFF71EBD7FB500221423CDE90122ADF869
:105F5C0004300B788DF808304B680393CB680493AE
:105F6C00007C0B7A059301A9FFF75AFD07B05DF889
:105F7C0004FB1FB5003B8DF800104FF0640103913A
:105F8C0018BF0123694601928DF80830FFF7DAFF3C
:105F9C0005B05DF804FB0123FFF7EBBF007C00228A
:105FAC00FFF7F6BCC9B2FFF7F9BF007C0022FFF780
:105FBC00F7BC0121FFF7F9BF704710B51821044653
:105FCC00FEF777F8204610BDF0B5037D062B8DB09B
:105FDC000E4600F104074FF0000412D000F1080542
:105FEC0015F8011D0A22304600F073F9AF42044443
:105FFC0019D0002CF4D02E21304600F051F9044475
:10600C00EEE72F236A4639460A208DF80040FFF749
:10601C0017FD6846FEF706F833680246DB686946EA
:10602C0030469847044620460DB0F0BD10B5054BE0
:10603C000446112240F8043B002101F02FF92046C0
:10604C0010BD00BFFC7F0B000346074A10B543F898
:10605C00042B01F1100251F8044B43F8044B91420C
:10606C00F9D10A781A7010BDFC7F0B00037D042B4C
:10607C0004D14068003818BF01207047062B07D1A7
:10608C0043683BB983682BB9C3681BB90069F1E756
:10609C00002070470120704710B59DF8084044EA75
:1060AC00032343EA024242EA01610423416003757F
:1060BC0010BD000007B5064B0360CB7800938B78BE
:1060CC004A780978FFF7E8FF03B05DF804FB00BFDE
:1060DC00FC7F0B00014B024A1A607047D0E603208C
:1060EC0008800B00002340681A46FFF7FDBD40688E
:1060FC0000220221FFF708BE002240681146FFF77C
:10610C00FBBD002240681146FFF706BE0023406825
:10611C001A461946FFF708BE002340681A4619466E
:10612C00FFF70ABE40680021FFF72EBE4068002131
:10613C00FFF732BE4068002281F00101FFF704BE78
:10614C0040680022FFF710BE002240681146FFF79E
:10615C0013BE002240681146FFF7FEBD2DE9F04347
:10616C0095B014460D460746FFF760FF00211C2230
:10617C000DA8009101F092F840230C9320466B4639
:10618C000CAA0021FFF77CFC044600284BD10246E8
:10619C0001216868FFF7C0FD02218046224668682D
:1061AC00FFF7BAFD009E81462146002E3BD0002908
:1061BC0039D17368022B03D00A2B11D0F669F4E79E
:1061CC00B8F1000FFAD0716906A8043107ADFFF7DA
:1061DC0071FF0FCD3C1D0FC42B6823704146EDE7BA
:1061EC00B9F1000FEAD07469102201A801F056F839
:1061FC0006238DF8143001AD04F108031834186827
:10620C0059682A4603C20833A3421546F7D101A99F
:10621C0006A807ADFFF718FF0FCD3C1D0FC42B6868
:10622C0023704946CAE70098FFF722FC384615B0A0
:10623C00BDE8F083024B034A1A6000225A60704793
:10624C00D4E6032014800B00F8B506460D468F18D3
:10625C000024BD420CD0336815F8011B9B683046F6
:10626C009847031E01DB1C44F3E7002C08BF1C46B7
:10627C002046F8BD13B50446084659B10191FDF707
:10628C00D1FE23680199DB680246204602B0BDE8C6
:10629C001040184702B010BD08B5FFF7EBFF08BD62
:1062AC0003689B68184738B50D210546FFF7F8FFC2
:1062BC000A2104462846FFF7F3FF204438BD38B5C1
:1062CC000546FFF7D7FF04462846FFF7ECFF2044AE
:1062DC0038BD30B58BB00023012A8DF8243098BF1F
:1062EC000A2209AC0D46B1FBF2F101FB125303F08B
:1062FC00FF03092B94BF30333733DBB2AA4204F8C7
:10630C00013DEFD92146FFF7B5FF0BB030BD2DE9AC
:10631C00F04186B000AF05460E46381D14211446D8
:10632C003B60FFF751FD13280ED8391D2846FFF7A7
:10633C00A1FF04461EB12846FFF7B5FF04442046D2
:10634C001837BD46BDE8F08100F1080323F00703C0
:10635C00E846ADEB030D2246411C3B686846FFF74F
:10636C0033FD69462846FFF785FF0446C546E1E73D
:10637C00014B00229A607047DCE603200021FFF7F6
:10638C00EFBB0021FFF7E4BB10B5044608462170B3
:10639C00FFF7BEFB00236360204610BD13B5044617
:1063AC000078FFF7EEFF58B9207801904FF6FF7197
:1063BC00FFF79EFB019802B0BDE81040FFF7DEBF6F
:1063CC0002B010BD0078FFF7D9BF0000400830B50F
:1063DC001860002418688842E5B206D90134082CEC
:1063EC0002D040081860F5E70725024B5B5D13707F
:1063FC0030BD00BF48800B002DE9F04306468FB03E
:10640C0000780C46FFF7BDFF00281BDB3578142203
:10641C00002109A800F042FF0B23002209A92846FD
:10642C00ADF82430FFF784FB9DF82D3013B19DF8A7
:10643C002C5055B10027B946B846012523795DB1DA
:10644C00C3B100200FB0BDE8F083DDF830809DF8BB
:10645C0034909DF83570F1E7002B35D1A368434596
:10646C0008D18DF820908DF82170BDF82020A389DB
:10647C009A42E6D00023A1688DF80F300A9804AB3D
:10648C000DF10F02FFF7A2FF217985B989B9A36835
:10649C0043450ED38DF820908DF82170BDF8202047
:1064AC00A3899A4205D1049B434502D1C9E700292F
:1064BC00F9D100230193637B00939DF80F20237B7C
:1064CC003078FFF73DFBBCE7CDE900552B462A465B
:1064DC000121F5E708B50078FFF712FBC0B208BD43
:1064EC00054B02221A60054B054A9A600020C3E94D
:1064FC000000FFF7C5BB00BFF8E60320ECE6032065
:10650C000000FFFF13B503688DF80710DC6B012248
:10651C004FF0FF330DF10701A04702B010BD10B4CE
:10652C000368DC6B4FF0FF33A4465DF8044B604707
:10653C0013B5134602688DF80710D46B0DF10701E3
:10654C000122A04702B010BD10B54369B3F88620F4
:10655C00B3F884309A42044608D06369B3F88420B7
:10656C00511CA3F884101344187910BD03681B69DF
:10657C0098470028F1D14FF0FF30F6E77047436998
:10658C001868C043C00F704770470000064B994213
:10659C0010B500F10C0405D0084600F059FD002898
:1065AC0008BF0024204610BD887F0B0010B5AC211D
:1065BC000446FDF77EFD204610BDAC21FDF779BDEC
:1065CC002DE9F0414FF0000886B01C46C0F804805D
:1065DC0005460E4617464146102202A800F05EFE04
:1065EC00631C09D04FF47A73B4FBF3F203FB12442F
:1065FC00CDE902285C430494686910230093006879
:10660C0002AB41F2050240F6FF71FFF741FA002898
:10661C0007DAFFF7E1FB03686B60002006B0BDE80A
:10662C00F0816869002300683A463146FFF750FA5A
:10663C00031EEEDB1846F1E738B584690A4B03609C
:10664C0005467CB16368013B63605BB923682046F7
:10665C009B689847A368013BA3601BB9236820463D
:10666C00DB689847284638BD8C800B0010B5044673
:10667C00FFF7E2FF20461C21FDF71BFD204610BD55
:10668C0030B587B0044601AD6846FFF713FD0FCD5A
:10669C0004340FC42B68237007B030BD70B54D693E
:1066AC00054B04468C3544F8043B06460FCD0FC40D
:1066BC002B682370304670BDFC7F0B002DE9F04336
:1066CC009846036893B00D460024DB6A06461746CD
:1066DC00984728466B46224621460094FFF7D0F98E
:1066EC000546002863D1009B002B4BD05B69002B27
:1066FC0048D006A8FFF79AFC009B5C696378022BD4
:10670C0004D1211D06A8FFF7BBFF26E00A2B24D1DC
:10671C001122294601A800F0C1FDA368002B38D036
:10672C0004F108030DF1040C18341868596862461A
:10673C0003C20833A3429446F7D1062301A90CA83F
:10674C008DF81430FFF780FC0DF1340CBCE80F0011
:10675C0007AC0FC4DCF80030237006A8FFF786FCEA
:10676C0080B1336807ADD3F82090124B0C930FCD4A
:10677C000DAC0FC42B6823703A4643460CA9304627
:10678C00C84705460098FFF773F9284613B0BDE8D3
:10679C00F083E368002BC3D14FF6FF70D4F8109050
:1067AC00FFF756F98145BBD104F11401AAE7254640
:1067BC00E8E700BFFC7F0B0038B543691A68002A74
:1067CC00054610DAB3F88620B3F884309A420AD121
:1067DC0003681B699847044628B92B682846DB6A6E
:1067EC009847204638BD0120FCE710B54369B3F843
:1067FC008620B3F884309A42044605D06369B3F816
:10680C0084201344187910BD03681B69984700282D
:10681C00F4D14FF0FF30F6E7F8B543691746B3F8FB
:10682C008620B3F884309A4205460E4616D0696924
:10683C00B1F88430B1F88640E41ABC4228BF3C461B
:10684C00043322461944304600F01AFD6A69B2F846
:10685C0084302344A2F884302046F8BD03681B69B9
:10686C0098470028E3D14FF0FF34F5E74269002345
:10687C00A2F884304269A2F8863070472DE9F041C5
:10688C001F4603680C46DB6A8AB0054616469847D5
:10689C00237DD5F81480042B0CBF02200A2006227D
:1068AC000121FFF71DF9C8F800006B691B68002B6C
:1068BC0008DA2B682846DB6A0024984720460AB081
:1068CC00BDE8F0812846FFF7D1FFB7B1002303A93B
:1068DC00F8B20393ADF81030FFF7AAF80028E8D10E
:1068EC00686906230093006803AB41F20B0240F683
:1068FC00FF71FFF7CDF80028DBD11C22002103A883
:10690C0000F0CCFC237D042B1DD14FF407733046D3
:10691C00ADF80C30FFF7A4F8ADF80E006068FFF787
:10692C0097F804906B691C22186803A9FFF7C0F84C
:10693C000028BED104340FCC6D698C350FC523688B
:10694C002B700124BAE740F61C233046ADF80C300E
:10695C00FFF786F805AEADF80E00231D04F1140701
:10696C0018685968324603C20833BB421646F7D141
:10697C00D8E7000030B54269B2F886308BB00446D7
:10698C002BB1B2F884209A4201D1FFF76FFF6169F5
:10699C000868002818DBB1F886507F2D14D8043114
:1069AC000823C5F180022944FFF78AF8002813DD7B
:1069BC006369B3F886200AB9A3F884206369B3F835
:1069CC0086201044A3F886006369B3F88600B3F8F8
:1069DC008430C01A0BB030BDFFF7FEF903680B2BE7
:1069EC00F2D0FFF7F9F903680B2BEDD0202300252B
:1069FC00CDE90235FFF7F0F903680193084B09491B
:106A0C00009302AA2B463220FFF732F9636918680B
:106A1C00FFF746F863694FF0FF321A60D4E700BF06
:106A2C0057800B0050800B0010B543690446186862
:106A3C00002801DBFFF734F863694FF0FF321A606E
:106A4C006069112200218C3000F028FC2046BDE842
:106A5C001040FFF70BBF10B5002304460160C0F8CF
:106A6C0084308830FFF7E2FA204610BD73B500235E
:106A7C004FF47A72C0E901320E4A0361026043613D
:106A8C000446AC200191FDF710FB051E05F10C0628
:106A9C0008D00123C5E90133074B01992B6030461F
:106AAC00FFF7D9FF2046C4E90565FFF7DFFE02B00A
:106ABC0070BD00BF8C800B0070800B0010B54FF0C8
:106ACC00FF310446FFF7D2FF204610BD10B5044637
:106ADC000068002801DBFEF7E3FF204610BD0C30F8
:106AEC00FFF7F4BF024B1A68024B1A60704700BFE5
:106AFC0074E50320FCE6032070474174704708B529
:106B0C00007CFFF765F820EAE07008BD08B5007C52
:106B1C00FFF736F820EAE07008BD08B5007CFFF7F7
:106B2C003FF840EAE07008BD08B5007CFFF730F88C
:106B3C0040EAE07008BD007CFFF73AB837B5457CF9
:106B4C0004462DB1207C03B0BDE83040FFF710B8EF
:106B5C00007C0191FFF73CF800280199F2DC2846F3
:106B6C0003B030BD10B514210446FDF7A2FA20463F
:106B7C0010BD000010B54FF47A7304460846114658
:106B8C000022C4E90123044B2360012320746374A5
:106B9C00FFF726F8204610BDF4800B0041747047B7
:106BAC007047704708B50021007CFFF741F840EAB8
:106BBC00E07008BD08B50121007CFFF739F840EA08
:106BCC00E07008BD08B5007CFFF72AF820EAE070F9
:106BDC0008BD08B5007CFFF71BF820EAE07008BD83
:106BEC0013B50446007C0191FFF71AF800280199AF
:106BFC0001DC607C20B1207CFFF722F820EAE070F9
:106C0C0002B010BD007CFFF723B810B51421044668
:106C1C00FDF74FFA204610BD10B54FF47A730446B9
:106C2C0008460021C4E90113044B2360012320749E
:106C3C0063741146FEF7DCFF204610BD24810B0067
:106C4C00007C0022FEF7DCBF10B5142204460021A4
:106C5C0000F024FB204610BD10B50F4C88B003A8E3
:106C6C00FFF7F2FF2178BFF35B8F11F001010FD119
:106C7C0020460191FDF72CFA019948B103AA074867
:106C8C00FFF7CAFF2046FDF728FA054800F0F2FA94
:106C9C00024808B010BD00BF00E7032004E7032042
:106CAC00AD6B0B00002240681146FFF735B800228F
:106CBC0040681146FFF750B8002240681146FFF7B4
:106CCC005BB840680022FFF74FB84068002281F0A3
:106CDC000101FFF739B8002340681A461946FFF73F
:106CEC002BB8002340681A461946FFF71DB800223E
:106CFC0040681146FFF700B8406800220221FFF7F8
:106D0C0003B8002340681A46FEF7EEBF024B04227C
:106D1C005A60024A1A60704718E7032054810B002E
:106D2C00014B1860704700BF78E5032008B50B4B8A
:106D3C0043B1FFF791FF03681B699847002801DDF9
:106D4C00AFF30080064B43B100F05CF903681B699C
:106D5C009847002801DDAFF3008008BD000000005B
:106D6C000000000008B5FFF7E1FFFEF7D9FD014B6D
:106D7C00186008BD28E703200548064A064908B5EF
:106D8C00121A00F07DFA054B054A1A6008BD00BFC7
:106D9C0000F4032004F40320A4830B0000F403206C
:106DAC001E1C279A07B5002300931A466FF0770133
:106DBC00FEF788FF03B05DF804FB000007B54388BD
:106DCC000A2B08D0502B0BD1094B1B684BB103B0CD
:106DDC005DF804EB1847FFF7E5FF03B05DF804FB23
:106DEC00002300931A466FF07701FEF76BFFF4E770
:106DFC0024E7032010B512480021FEF7FDFF114BCC
:106E0C001A68114B9A42114B0CBF012200221A70C6
:106E1C0001D0FFF7B1FFFEF773FD044600F046FA10
:106E2C000B4B13B12046AFF3008000210848FEF74E
:106E3C0053FFBDE8104007480021FEF739BF00BFE3
:106E4C002D6D0B0000F403201E1C279A20E7032055
:106E5C0000000000C96D0B00232813B502D90020D7
:106E6C0002B010BDA0F10B03022B1AD8174C2178DD
:106E7C00BFF35B8F11F001010BD120460191FDF79F
:106E8C0027F9019928B11248FFF77EFA2046FDF741
:106E9C0024F90F4B1878FEF743FE0028DFD10120B0
:106EAC00DEE7012809D800F06DF80021007CFEF720
:106EBC00A7FD80F00100C0B2D2E709380128EED856
:106ECC0000F0A0F8007CFEF77BFEF2E7B8E60320AA
:106EDC00BCE60320232838B504460D460AD8FF2902
:106EEC0008D0FFF7B9FF28B129462046BDE8384045
:106EFC00FEF71EBD38BD38B504460D46FEF720FD25
:106F0C00FF2810D0062804D84D2323FA00F0C3071D
:106F1C0009D42046FFF7A0FF28B129462046BDE83A
:106F2C003840FEF715BD38BD10B50446FEF708FD18
:106F3C00031FDBB2012B08D92046FFF78DFF20B1D0
:106F4C002046BDE81040FEF70BBD002010BD704779
:106F5C0038B50A4B036001230446436108492020DD
:106F6C0000F074F8202560600549A560284600F003
:106F7C006DF8C4E90305204638BD00BF18000100B8
:106F8C0088810B0030B50E4D2978BFF35B8F11F063
:106F9C00010487B011D12846FDF79AF868B168460C
:106FAC00FFF7D6FF6A4621460648FEF7A3FF2846A0
:106FBC00FDF793F8044800F05DF9024807B030BDC6
:106FCC002CE7032030E703205B6F0B0070470000B9
:106FDC0038B5044614252A46002100F05FF92580B7
:106FEC004025074925812846258200F02FF80449C1
:106FFC006060284600F02AF8E060204638BD00BFEB
:10700C0088810B0030B50E4D2978BFF35B8F11F0E2
:10701C00010487B011D12846FDF75AF868B101A8D0
:10702C00FFF7D6FF01AA21460648FFF7A3FD284625
:10703C00FDF753F8044800F01DF9024807B030BDC5
:10704C0044E7032048E70320D96F0B00FDF72FB866
:10705C00014900F0F9B800BFA4810B007FB50024F2
:10706C001023CDE90234036815469E6912686B46FD
:10707C00CDE90044B0479DF8043003F00603062B1D
:10708C0003BF009B2B600120204604B070BD00980C
:10709C00904214BF012006207047000010B5034B2E
:1070AC000360044600F0CDF8204610BDE4810B00CF
:1070BC0010B50446FFF7F2FF20460821FCF7F9FF54
:1070CC00204610BD2DE9F0411F46DDE90834DDF8FE
:1070DC00188098450646154607D1079900F0B4F874
:1070EC0018B165710020BDE8F0813946304600F0DA
:1070FC00ABF80028F6D00123C4F800802571A371E9
:10710C00F0E738B515461C4600F09EF820B1082370
:10711C00E36006232560237138BD73B505460C4624
:10712C0001921E4600F090F850B9032E08D823683F
:10713C00019A5B692946204602B0BDE870401847A9
:10714C0002B070BD10B5034B03600446FFF7A6FFF9
:10715C00204610BD44820B0010B50446FFF7F2FF29
:10716C0020460C21FCF7A5FF204610BDF7B5089F63
:10717C00974205460E4614460AD0A868026808973E
:10718C00156A31462246AC4603B0BDE8F040604774
:10719C001946019300F058F8019B0028EDD0062009
:1071AC0003B0F0BD2DE9F14F0D461946DDE90A4B50
:1071BC00DDE90CA681461746984600F045F890B1DB
:1071CC00002D3460377109DB61198A450CBF06212B
:1071DC000121B171002001B0BDE8F08F0235F9D169
:1071EC000123B371F6E7544506D15946484600F0E1
:1071FC002BF808B17771EDE7D9F808000368CDE9F1
:10720C000CA6CDE90A4BDC693A4643462946A4460E
:10721C0001B0BDE8F04F60472DE9F04107460C4640
:10722C0015461E46FFF76DFF48B9B86803689F699D
:10723C002A4633462146BC46BDE8F0416047BDE8CE
:10724C00F081704700207047814208B50ED040682D
:10725C0003782A2B0CD049680B782A2B08BF0131F4
:10726C00FCF7D6FEB0FA80F0400908BD0120FCE71F
:10727C000020FAE7002301461A46184600F044B8ED
:10728C000A44914200F1FF3300D1704710B511F858
:10729C00014B03F8014F9142F9D110BD0244034652
:1072AC00934200D1704703F8011BF9E738B5104B36
:1072BC001D68AB6B0446B3B91820FEF775FD02468A
:1072CC00A86320B90B4B0C484221FEF78DFD0B49EE
:1072DC000B4BC0E900130B4B83600B238381002104
:1072EC000120C2E90401AB6B00221C615A6138BD5C
:1072FC0078E503207D820B0094820B000E33CDAB1E
:10730C0034126DE6ECDE05002DE9F843DFF8B880A9
:10731C000646D8F800001F460D46914600F056F878
:10732C00254B1C6834B9254C1C60254B13B11B68CC
:10733C00C4F8883063681F2B07DDD8F8000000F014
:10734C0047F84FF0FF30BDE8F8834EB3D4F888000F
:10735C0088B91C4B23B9D8F8000000F038F8F0E7D6
:10736C004FF48470FEF720FD0028F4D00023C0E910
:10737C004033C4F88800636840F8239001229A4097
:10738C0000EB8301D0F800311343C0F80031022E1A
:10739C00C1F8807002BFD0F804311343C0F8043137
:1073AC006368D8F800005A1C0233626044F823501A
:1073BC0000F00EF80020C6E7E8E703205CE70320A6
:1073CC0000000000B55D0B00DCE503207047704742
:1073DC007047000041400B007D400B00A5400B00A6
:1073EC00A9400B000000000043616C6C206F6E2004
:1073FC0070757265207669727475616C0053746176
:10740C007274696E6720646174612072656164696D
:10741C006E672E2E0043757272656E742070726FDB
:10742C0078696D69747920726573756C74733A2020
:10743C000043757272656E74206C69676874206C99
:10744C006576656C3A200000000000003E5B4F5BE7
:10745C003E3E6B4F6B3E1C3E7C3E1C183C7E3C18EB
:10746C001C577D571C1C5E7F5E1C00183C1800FFCF
:10747C00E7C3E7FF0018241800FFE7DBE7FF3048FD
:10748C003A060E2629792926407F050507407F05F7
:10749C00253F5A3CE73C5A7F3E1C1C08081C1C3EEE
:1074AC007F14227F22145F5F005F5F06097F017FDC
:1074BC00006689956A606060606094A2FFA294087F
:1074CC00047E040810207E201008082A1C08081CC2
:1074DC002A08081E101010100C1E0C1E0C30383E02
:1074EC003830060E3E0E06000000000000005F0063
:1074FC00000007000700147F147F14242A7F2A122F
:10750C002313086462364956205000080703000014
:10751C001C2241000041221C002A1C7F1C2A080846
:10752C003E08080080703000080808080800006059
:10753C00600020100804023E5149453E00427F4045
:10754C000072494949462141494D331814127F10A4
:10755C0027454545393C4A494931412111090736EE
:10756C0049494936464949291E000014000000408B
:10757C003400000008142241141414141400412285
:10758C00140802015909063E415D594E7C12111234
:10759C007C7F494949363E414141227F4141413E30
:1075AC007F494949417F090909013E414151737F96
:1075BC000808087F00417F41002040413F017F08BF
:1075CC001422417F404040407F021C027F7F040810
:1075DC00107F3E4141413E7F090909063E41512140
:1075EC005E7F09192946264949493203017F010367
:1075FC003F4040403F1F2040201F3F4038403F63EA
:10760C001408146303047804036159494D43007F43
:10761C004141410204081020004141417F04020114
:10762C0002044040404040000307080020545478B6
:10763C00407F284444383844444428384444287F04
:10764C00385454541800087E090218A4A49C787F5E
:10765C000804047800447D40002040403D007F1029
:10766C0028440000417F40007C047804787C0804A6
:10767C0004783844444438FC18242418182424185A
:10768C00FC7C08040408485454542404043F442447
:10769C003C4040207C1C2040201C3C4030403C4462
:1076AC00281028444C9090907C4464544C4400081E
:1076BC00364100000077000000413608000201024C
:1076CC0004023C2623263C1EA1A161123A40402014
:1076DC007A3854545559215555794122545478428D
:1076EC00215554784020545579400C1E5272123951
:1076FC00555555593954545459395554545800000A
:10770C00457C410002457D420001457C407D1211C3
:10771C00127DF0282528F07C545545002054547CCB
:10772C00547C0A097F4932494949323A4444443A23
:10773C00324A4848303A4141217A3A424020780056
:10774C009DA0A07D3D4242423D3D4040403D3C24F9
:10775C00FF2424487E4943662B2FFC2F2BFF09293D
:10776C00F620C0887E090320545479410000447DE2
:10777C00413048484A32384040227A007A0A0A722C
:10778C007D0D19317D2629292F28262929292630D6
:10779C00484D4020380808080808080808382F10F9
:1077AC00C8ACBA2F102834FA00007B000008142A49
:1077BC00142222142A14085500550055AA55AA550E
:1077CC00AAFF55FF55FF000000FF00101010FF002E
:1077DC00141414FF001010FF00FF1010F010F01420
:1077EC001414FC001414F700FF0000FF00FF141425
:1077FC00F404FC141417101F10101F101F14141471
:10780C001F00101010F0000000001F101010101FAF
:10781C0010101010F010000000FF101010101010BD
:10782C00101010FF10000000FF140000FF00FF00FC
:10783C00001F10170000FC04F41414171017141474
:10784C00F404F40000FF00F714141414141414F7C7
:10785C0000F7141414171410101F101F141414F420
:10786C00141010F010F000001F101F0000001F1467
:10787C00000000FC140000F010F01010FF10FF14BA
:10788C001414FF141010101F00000000F010FFFF64
:10789C00FFFFFFF0F0F0F0F0FFFFFF000000000032
:1078AC00FFFF0F0F0F0F0F3844443844FC4A4A4A6D
:1078BC00347E02020606027E027E02635549416353
:1078CC003844443C04407E201E2006027E0202996D
:1078DC00A5E7A5991C2A492A1C4C7201724C304A06
:1078EC004D4D303048784830BC625A463D3E49498F
:1078FC0049007E0101017E2A2A2A2A2A44445F4437
:10790C004440514A444040444A51400000FF010366
:10791C00E080FF000008086B6B0836123624360630
:10792C000F090F060000181800000010100030405E
:10793C00FF0101001F01011E00191D1712003C3C24
:10794C003C3C0000000000000000000000000000B3
:10795C0000000000000000009D490B0055620B0068
:10796C00C5400B00A3430B00A5430B00D7430B00F2
:10797C00B3430B00C5430B00E5420B00A3430B00C4
:10798C00CF450B00CD450B00EF430B002D440B00F6
:10799C0067440B00AD440B00C9440B004D450B0074
:1079AC0064656661756C7420004D5342004C534203
:1079BC00003C53504953657474696E677320646559
:1079CC006661756C743E003C535049536574746920
:1079DC006E67732025732575202573204D4F444504
:1079EC0025753E000000000000000000D94A0B0085
:1079FC00AB4A0B00AD4A0B000000000000018000F8
:107A0C0000000000000000000380000000000000E7
:107A1C0000000007C000000000000000000007C0CC
:107A2C000000000000000000000FC000000000007B
:107A3C00000000001FE00000000000000000001F1C
:107A4C00E00000000000000000003FE0000000002B
:107A5C0000000000003FF0000000000000000000EB
:107A6C007FF0000000000000001FF87FF000000015
:107A7C00000000003FFE7FF0000000000000003F0F
:107A8C00FF7FF0000000000000001FFFFBE0000083
:107A9C0000000000000FFFF9FFC000000000000014
:107AAC000FFFF9FFF800000000000007FFF1FFFFD7
:107ABC0000000000000003FC73FFFF8000000000CA
:107ACC000001FE3FFFFF80000000000000FF1E0FC2
:107ADC00FF000000000000007FFE1FFC0000000003
:107AEC000000003FFFFFF8000000000000000FDF67
:107AFC00FFE0000000000000001F19FFC0000000A4
:107B0C00000000003F3CFF00000000000000007E71
:107B1C007CF800000000000000007FFE7C000000EC
:107B2C000000000000FFFFFC00000000000000004F
:107B3C00FFFFFE0000000000000000FFFFFE000041
:107B4C00000000000001FFEFFE000000000000003C
:107B5C0001FFCFFE0000000000000003FF07FE0045
:107B6C0000000000000003FC07FE00000000000005
:107B7C000003F003FE00000000000000018000FE86
:107B8C00000000000000000000007E00000000006B
:107B9C0000000000003E000000000000000000009B
:107BAC000C000000000000078000FC000003C00077
:107BBC000000078001FC000003C0000000078001EA
:107BCC00FC000003C0000000078001E00000001E64
:107BDC00000000078001E00000001E007FE3F79F1B
:107BEC00F9FDE7787BDFC0FFF7FFBFFDFDFF787B7A
:107BFC00DFC0FFF7FFBFFDFDFF787BDFC0F0F7872D
:107C0C00BC3DE1FF787BDE00F0F787BC3DE1F0780E
:107C1C007BDE0000F787803DE1E0787BDE007FF7BC
:107C2C00879FFDE1E0787BDE00FFF787BFFDE1E099
:107C3C00787BDE00F0F787BC3DE1E0787BDE00F07E
:107C4C00F787BC3DE1E0787BDE00F0F787BC3DE1D7
:107C5C00E0787BDE00FFF7FFBFFDE1E07FFBDFC0DC
:107C6C00FFF7FFBFFDE1E07FFBDFC07CF3F39F3D3F
:107C7C00E1E03E7BCFC000000000000000000000EF
:107C8C0000FFFFFFFFFFFFFFFFFFFFC0FFFFFFFF36
:107C9C00FD68DB111A31C0FFFFFFFFFD2B5AFB6A99
:107CAC00EFC0FFFFFFFFFD4B5B3B1A33C0FFFFFF35
:107CBC00FFFD6B5BDB6AFDC0000060000000000094
:107CCC00000000000000000000E0000000000000C8
:107CDC000000000000000001E000000000000000B7
:107CEC0000000000000001F0000000000000000097
:107CFC00000000000003F000000000000000000085
:107D0C000000000007F00000000000000000000070
:107D1C0000000007F8000000000000000000000058
:107D2C0000000FF800000003C0007E000001E0001E
:107D3C007F0FF800000003C000FE000001E000FF10
:107D4C00EFF800000003C000FE000001E000FFFFA0
:107D5C00F800000003C000F00000000F007FFE7F61
:107D6C00C0000003C000F00000000F003FFE7FF8D1
:107D7C003FF1FBCFFCFEF3BC3DEFE01FFE7FFF7F2E
:107D8C00FBFFDFFEFEFFBC3DEFE01FC6FFFF7FFBEE
:107D9C00FFDFFEFEFFBC3DEFE00FE3C7FE787BC3C9
:107DAC00DE1EF0FFBC3DEF0007FF87FC787BC3DED7
:107DBC001EF0F83C3DEF0001FFFFF0007BC3C01E3E
:107DCC00F0F03C3DEF0001F37FE03FFBC3CFFEF052
:107DDC00F03C3DEF0003E33F807FFBC3DFFEF0F0A0
:107DEC003C3DEF0007E73C00787BC3DE1EF0F03C27
:107DFC003DEF0007FFBE00787BC3DE1EF0F03C3D7C
:107E0C00EF0007FFFE00787BC3DE1EF0F03C3DEF79
:107E1C00000FFFFE007FFBFFDFFEF0F03FFDEFE009
:107E2C000FFFFF007FFBFFDFFEF0F03FFDEFE00FE9
:107E3C00F9FF003E79F9CF9EF0F01F3DE7E01FF10E
:107E4C00FF0000000000000000000000001F80FF89
:107E5C00007FFFFFFFFFFFFFFFFFFFE01C007F0025
:107E6C007FFFFFFFFEB46D888D18E000001F007FC0
:107E7C00FFFFFFFE95AD7DB577E000000F007FFFA3
:107E8C00FFFFFEA5AD9D8D19E0000006007FFFFFF2
:107E9C00FFFEB5ADEDB57EE0000000000000000077
:107EAC002D4B0B00454B0B009D490B0055620B00F5
:107EBC00594B0B00A3430B00A5430B00D7430B00FE
:107ECC00B3430B00C5430B00E5420B00A3430B006F
:107EDC00CF450B00F74C0B009F520B0051520B007F
:107EEC0067440B00AD440B00C9440B004D450B001F
:107EFC000080C0E0F0F8FCFE000103070F1F3F7F7D
:107F0C00AED580A8D300408D2000A1C8DB40A4A62C
:107F1C002EAFDA02818FDA1281DA02812200FF2180
:107F2C000000000000000000000000008D570B0056
:107F3C00AD570B009D490B0055620B00594B0B00C4
:107F4C00A3430B00A5430B00D7430B00B3430B001B
:107F5C00C5430B00E5420B00A3430B00CF450B00C0
:107F6C00F74C0B009F520B0051520B0067440B0057
:107F7C00AD440B00C9440B004D450B000000000044
:107F8C000000000000000000000000008B5E0B00F1
:107F9C00815E0B00775E0B006D5E0B00615E0B006B
:107FAC00555E0B0031610B0039610B00495E0B0013
:107FBC00415E0B00375E0B002D5E0B0069610B0000
:107FCC000000000000000000A95E0B00F35E0B0037
:107FDC00CB5E0B00AB5E0B00D35E0B00DB5E0B00CD
:107FEC00E35E0B00EB5E0B000000000000000000E5
:107FFC00D55F0B00C55F0B00C75F0B006170700095
:10800C000000000000000000F1600B00FB600B00A2
:10801C0005610B000F610B0019610B0025610B0052
:10802C0031610B0039610B0041610B004D610B009C
:10803C0055610B005F610B0069610B0000081018A3
:10804C0020283038776972696E6700726563762014
:10805C006572726F72203D202564000000000000E4
:10806C000000000095650B00B9650B00EB6A0B0076
:10807C00C7650B0099650B000000000000000000B4
:10808C0045660B0079660B0011650B002B650B0028
:10809C0081690B0055650B00F7670B0089650B00B8
:1080AC0089680B00C9660B0025680B00356A0B004C
:1080BC00C5670B008B650B003D650B00CD650B0098
:1080CC00A9660B0025592D256D2D25645425483A9C
:1080DC00254D3A2553257A0061736374696D6500EB
:1080EC000000000000000000056B0B00716B0B0022
:1080FC00496B0B0055620B00196B0B00356B0B00B9
:10810C00276B0B00436B0B00076B0B000B6B0B000F
:10811C000000000000000000AF6B0B00176C0B00A0
:10812C00ED6B0B0055620B00DF6B0B00B16B0B00A2
:10813C00C16B0B00116C0B00D16B0B00A96B0B000E
:10814C0000000000000000000F6D0B00056D0B001F
:10815C00FB6C0B00B16C0B00EF6C0B00E36C0B00B9
:10816C0031610B0039610B00D76C0B00CF6C0B002D
:10817C00C56C0B00BB6C0B0069610B0000537431B8
:10818C00395F53705F6D616B655F736861726564B5
:10819C005F74616700000000E4810B0089810B00B3
:1081AC0044820B00B8810B0068820B004E31305FAB
:1081BC005F637878616269763131375F5F636C61D8
:1081CC0073735F747970655F696E666F450000004C
:1081DC0000000000AC810B00A9700B00BD700B00FF
:1081EC0051720B0051720B0027710B0069700B0060
:1081FC000F710B00D1700B009B700B0044820B00B5
:10820C0014820B00AC810B004E31305F5F637878C9
:10821C00616269763132305F5F73695F636C617381
:10822C00735F747970655F696E666F45000000005E
:10823C000000000008820B0051710B0065710B00EF
:10824C0051720B0051720B0027710B0069700B00FF
:10825C0025720B00B1710B0079710B00E4810B00DE
:10826C0070820B00537439747970655F696E666F38
:10827C00005245454E54206D616C6C6F63207375D4
:10828C0063636565646564002F746D702F6A656E39
:10829C006B696E732D4743432D31302D70697065BA
:1082AC006C696E652D34385F323032303131323496
:1082BC005F313630363138303633392F7372632FA5
:1082CC006E65776C69622F6E65776C69622F6C696D
:1082DC0062632F7374646C69622F72616E642E63B7
:1082EC000000000091420B001D5E0B00955E0B0020
:1082FC00E1600B0041620B007D630B00ED640B0031
:08830C00F16A0B00196D0B0072
:10831400040000001400000003000000474E550054
:10832400B935047F3A7F7EEED2433B3FAD741A49A0
:0483340080BE9A1756
:10833800E4800B007CE50320000000000000000042
:108348000000000000000000000000000000000025
:108358000000000000000000000000000000000015
:108368000000000000000000000000000000000005
:1083780000000000000000000000000000000000F5
:1083880000000000000000000000000000000000E5
:0C8398000000000000000000ECE70320E3
:0483A40000000000D5
:1083AE0000000102030405060708090A0B0C0D0E56
:1083BE000F101112131415161718191A1B1C1D1E47
:0483CE001F20280044
:0483D2007856341293
:04000003B000401CED
:00000001FF
